:10152A00121C58E4F556744E2556F8E4F60556E5AD
:10153A0056B404F2054DE54DD39409500302161929
:10154A00E4F54874522548F8E6FF74492548F8A698
:10155A0007E5487004A2B18014E548B40104A2B0BA
:10156A00800BE548B40204A2B28002A2B3E433FFBE
:10157A0074522548F8A60774522548F8E6702C7468
:10158A00492548F8E6B40123E54814600F146011B0
:10159A0014601324037062121163805D120FFF80BE
:1015AA00581217DB8053121ACD804E74522548F810
:1015BA00E6704674492548F8E6703E744E2548F8A8
:1015CA0006744E2548F8E6FFC394644033EF75F07D
:1015DA000584E5F0702AE54814600F146011146060
:1015EA00132403701B1211638016120FFF8011124D
:1015FA0017DB800C121ACD8007744E2548F8E4F6E2
:10160A000548E548C39404500302154DE4F54D7F9F
:09161A00017E00121C7002153E55
:101CD5007C007D0A120AF2EF1F70011E144E70F788
:011CE50022DC
:101C7000AB07AA06EB1B70011A144A60097FB67EF7
:071C800003121CD580EE22C7
:041D140000000022A9
:061CF500121CFB121D1879
:071CFB0000000000000022C0
:031D1800D2A12233
:031D1B00C2A12240
:031D1E00D2A0222E
:031D2100C2A0223B
:061D0E00A2A0E433FF2255
:101CB100121D1E121D18121CFB121D21121CFB02EB
:021CC1001D1BE9
:101CC300121D21121D18121CFB121D1E121CFB02D9
:021CD3001D1BD7
:0F1CE600121D1B121D21121CF5121D1B021D1EAB
:0C1D0200121D1B121D1E121CF5021D1BE1
:061B400025E0FF121BFA74
:101B4600E4FDFC121D18121CFB121D0EEF60170D92
:101B5600BD00010C121D14D3ED9464EC940040E911
:0B1B6600121CC37F0122121D1B7F0018
:011B71002251
:101BFA00E4FE121D1BEF30E705121D1E8003121DA5
:101C0A0021EF25E0FF121CF5121D1B121CFB0EBE54
:021C1A0008E3DD
:011C1C0022A5
:021BA400AE078A
:101BA600E4FDFC121D1B121CFB121D18EC25E0FCAB
:101BB600121D0EEF60010C121CFB0DBD08E5EE7048
:0B1BC60005121D028003121CE6AF0494
:011BD10022F1
:1019F6008D428B438A448945121CB1EF121B40EF7E
:101A060060037F0122AF42121BFA121B46EF6003EE
:101A16007F0122E5471547AE46700215464E601A0D
:101A2600AB430545E545AA447002054414F9120A7C
:101A36009A121B42EF60DC7F0122121CC37F002238
:101988008F638D648B658A668967121CB1E5631263
:101998001B40EF60037F0122AF64121BFA121B4643
:1019A800EF60037F0122121CB1E56325E0440112B8
:1019B8001B42EF60037F0122E5691569AE6870027A
:1019C80015684E6023E569456860047F0180027FE1
:1019D80000121BA4AB650567E567AA667002056679
:0E19E80014F9EF120AE080D0121CC37F002217
:100003000000000000000000002F000000000700B7
:10001300070000147F147F1400242A7F2A12006231
:1000230064081323003649552250000005030000DD
:1000330000001C224100000041221C000014083E65
:1000430008140008083E0808000000A0600000082B
:10005300080808080000606000000020100804027F
:10006300003E5149453E0000427F4000004261513D
:100073004946002141454B31001814127F100027D7
:1000830045454539003C4A4949300001710905039A
:1000930000364949493600064949291E00003636CB
:1000A300000000005636000000081422410000142E
:1000B300141414140000412214080002015109060B
:1000C30000324959513E007C1211127C007F49498C
:1000D3004936003E41414122007F4141221C007FBD
:1000E30049494941007F09090901003E4149497ACB
:1000F300007F0808087F0000417F41000020404145
:100103003F01007F08142241007F40404040007FB0
:10011300020C027F007F0408107F003E4141413EF4
:10012300007F09090906003E4151215E007F09193C
:1001330029460046494949310001017F0101003F39
:100143004040403F001F2040201F003F4038403FB9
:10015300006314081463000708700807006151491D
:10016300454300007F41410000552A552A550000B0
:1001730041417F000004020102040040404040402E
:10018300000001020400002054545478007F4844C6
:10019300443800384444442000384444487F0038FD
:1001A3005454541800087E0901020018A4A4A47C26
:1001B300007F080404780000447D400000408084F0
:1001C3007D00007F102844000000417F4000007C38
:1001D30004180478007C0804047800384444443844
:1001E30000FC242424180018242418FC007C080490
:1001F300040800485454542000043F444020003C69
:100203004040207C001C2040201C003C4030403CEF
:10021300004428102844001CA0A0A07C004464547F
:100223004C441414141414140000000000000000C3
:100233000000000000000000000000F800000000C3
:10024300000000333000000000100C06100C060004
:10025300000000000000000040C07840C07840006B
:10026300043F04043F040400007088FC08300000CD
:10027300001820FF211E0000F008F000E018000025
:1002830000211C031E211E0000F0088870000000DE
:100293001E2123241927211010160E000000000030
:1002A3000000000000000000000000E0180402004D
:1002B300000000071820400000020418E0000000BE
:1002C3000040201807000000404080F080404000BC
:1002D3000202010F01020200000000F00000000012
:1002E3000101011F010101000000000000000000E6
:1002F30080B070000000000000000000000000005B
:1003030000010101010101010000000000000000E3
:10031300003030000000000000000000806018047E
:10032300006018060100000000E010080810E0005B
:10033300000F102020100F00001010F80000000024
:100343000020203F2020000000700808088870006B
:1003530000302824222130000030088888483000EB
:100363000018202020110E000000C02010F800000B
:1003730000070424243F240000F8088888080800A4
:100383000019212020110E0000E0108888180000B9
:10039300000F112020110E0000380808C83808008B
:1003A3000000003F0000000000708808088870000B
:1003B300001C222121221C0000E010080810E0008C
:1003C3000000312222110F00000000C0C000000015
:1003D300000000303000000000000080000000003A
:1003E3000000806000000000000080402010080032
:1003F30000010204081020004040404040404000FB
:1004030004040404040404000008102040800000D5
:100413000020100804020100007048080808F000DA
:100423000000003036010000C030C828E810E000AA
:100433000718272423140B000000C038E000000035
:10044300203C23020227382008F88888887000009F
:10045300203F202020110E00C03008080808380073
:10046300071820202010080008F808080810E000EA
:10047300203F202020100F0008F88888E80810008B
:10048300203F20202320180008F88888E80810005F
:10049300203F200003000000C03008080838000097
:1004A30007182020221E020008F808000008F80898
:1004B300203F210101213F20000808F8080800001F
:1004C3000020203F2020000000000808F808080052
:1004D300C08080807F00000008F888C028180800CA
:1004E300203F20012638200008F808000000000003
:1004F300203F20202020300008F8F800F8F80800FA
:10050300203F003F003F200008F830C00008F808F3
:10051300203F200007183F00E01008080810E00003
:100523000F10202020100F0008F808080808F0001A
:10053300203F210101010000E01008080810E0003D
:100543000F18242438504F0008F8888888887000D2
:10055300203F2000030C3020007088080808380072
:100563000038202121221C00180808F80808180068
:100573000000203F2000000008F808000008F808E9
:10058300001F202020201F000878880000C838089A
:10059300000007380E010000F80800F80008F80012
:1005A300033C0700073C03000818688080681808AC
:1005B30020302C03032C30200838C800C83808002A
:1005C3000000203F2000000010080808C838080079
:1005D3002038262120201800000000FE020202001D
:1005E3000000007F40404000000C30C000000000CD
:1005F300000000010638C00000020202FE000000F5
:10060300004040407F00000000000402020204009A
:1006130000000000000000000000000000000000D7
:1006230080808080808080800002020400000000BF
:1006330000000000000000000000808080800000B7
:100643000019242222223F2008F8008080000000A5
:10065300003F112020110E00000000808080000068
:10066300000E112020201100000000808088F80077
:10067300000E112020103F200000808080800000A9
:10068300001F222222221300008080F0888888180D
:100693000020203F20200000000080808080800018
:1006A300006B94949493600008F8008080800000AD
:1006B300203F210000203F20008098980000000088
:1006C3000020203F202000000000008098980000B8
:1006D30000C08080807F000008F8000080808000D8
:1006E300203F24022D302000000808F800000000FD
:1006F3000020203F202000008080808080808000B8
:10070300203F20003F20003F808000808080000049
:10071300203F210000203F200000808080800000D7
:10072300001F202020201F00808000808000000008
:1007330080FFA12020110E00000000808080800037
:10074300000E112020A0FF80808080008080800028
:1007530020203F2120000100000080808080800055
:100763000033242424241900008080E080800000CA
:100773000000001F20200000808000000080800017
:10078300001F202020103F20808080000080808078
:1007930000010E3008060100808000800080808008
:1007A3000F300C030C300F0000808000808080002D
:1007B3000020312E0E312000808080000080808058
:1007C30080818E7018060100008080808080800008
:1007D3000021302C2221300000000000807C020226
:1007E30000000000003F404000000000FF00000048
:1007F30000000000FF0000000002027C80000000F7
:100803000040403F00000000000601010202040412
:080813000000000000000000DD
:011D2400229C
:051BD20024B0FFE4FD5A
:101BD7008F40ED7B007A007940600A7546007547B3
:101BE700017D408008754600754701E4FD7F3C1282
:031BF70019F622BA
:101C1D008F3FED121BD2E53F54F0C4540F4410FF1B
:0F1C2D00E4FD121BD7E53F540FFFE4FD021BD768
:101C8700E4FD7F8D121BD7E4FD7F14121BD7E4FD03
:051C97007FAF021BD726
:101C9C00E4FD7F8D121BD7E4FD7F10121BD7E4FDF2
:051CAC007FAE021BD712
:101B7200E4F508E508121BD2E4FDFF121BD7E4FDD1
:101B82007F10121BD7E4F5097D01E4FF121BD70574
:101B920009E509C3948040F00508E508C3940840AC
:011BA200D270
:011BA300221F
:1012BA00E51175F008A42508FF850F3C85103D7BD4
:0312CA0020AD094B
:0612CD008F398D3A8B3BC6
:1012D300E4F53E74E0253BF53BE539D3947F4007C5
:1012E300E4F539053A053AE53C641060030213A6B8
:1012F300AD3AAF39121C1DE4F53EE53D75F01070B3
:101303001DE53BA4242BF582E5F03402F583E58249
:10131300253EF582E43583F583E493FF801CE53BAA
:10132300A4242BF582E5F03402F583E582253EF50E
:1013330082E43583F583E493F4FF7D01121BD70523
:101343003EE53EC3940840B2E53A04FDAF39121CB2
:101353001DE4F53EE53D75F010701DE53BA4243317
:10136300F582E5F03402F583E582253EF582E43526
:1013730083F583E493FF801CE53BA42433F582E5E6
:10138300F03402F583E582253EF582E43583F58367
:10139300E493F4FF7D01121BD7053EE53EC3940899
:1013A30040B222E53C64067058AD3AAF39121C1DB9
:1013B300E4F53EE53D75F006701DE53BA42403F519
:1013C30082E5F03400F583E582253EF582E435833A
:1013D300F583E493FF801CE53BA42403F582E5F049
:1013E3003400F583E582253EF582E43583F583E415
:1013F30093F4FF7D01121BD7053EE53EC3940640DF
:01140300B236
:0114040022C5
:041B07008F6A8D6BE9
:101B0B00E4756F01F56EF56DF56CAF6B156BEF60F2
:101B1B001BAB6FAA6EA96DA86CAF6AE4FCFDFE123D
:101B2B000B478F6F8E6E8D6D8C6C80DEAF6FAE6ED4
:041B3B00AD6DAC6C74
:011B3F002283
:041405008F088D09B6
:10140900E4F511F512850813AB0DAA0CA90BA80A6E
:10141900E8335022AF0DAE0CAD0BAC0A120B968F10
:101429000D8E0C8D0B8C0AE50824F8FF850F3C8581
:10143900103D7B2D800DE50824F8FF850F3C8510B4
:101449003D7B20AD091212CDAF0DAE0CAD0BAC0A30
:10145900EC4D4E4F7023850F3C85103D7B30AD0917
:10146900AF081212CD751101E511C3950E400302A3
:1014790015291212BA051180EFE4F512E4FFFEFDF9
:10148900FCAB0DAA0CA90BA80AD3120BA44044E586
:1014990012940A503EE47B0AFAF9F8AF0DAE0CAD8E
:1014A9000BAC0A121A46AF03AE120512741C2EF5C4
:1014B90082E43400F583EFF0AF0DAE0CAD0BAC0A4E
:1014C900E47B0AFAF9F8121A468F0D8E0C8D0B8CF3
:1014D9000A80A9E4F511E511C395125032E5117599
:1014E900F008A42508FFE511FDE512C39DFDE4946C
:1014F90000FC741B2DF58274003CF583E02430FB5D
:10150900850F3C85103DAD091212CD051180C785A7
:101519001211E511C3950E50071212BA051180F286
:01152900229F
:040CA0008F088D0923
:100CA400E4F51BF51CAB0DAA0CA90BA80AE83350FC
:100CB40022AF0DAE0CAD0BAC0A120B968F0D8E0C41
:100CC4008D0B8C0AE50824F8FF753C06850E3D7BE8
:100CD4002D800DE50824F8FF753C06850E3D7B202C
:100CE400AD091212CDE47B64FAF9F8AF0DAE0CAD88
:100CF4000BAC0A121A468F2C8E2B8D2A8C29E47B7E
:100D040064FAF9F8AF0DAE0CAD0BAC0A121A46AC8E
:100D140000AD01AE02AF038F308E2F8D2E8C2DAF20
:100D24002CAE2BAD2AAC29EC4D4E4F700CAF1B05ED
:100D34001B741D2FF87630804DE4FFFEFDFCAB2CB8
:100D4400AA2BA92AA829D3120BA4403AE47B0AFAB5
:100D5400F9F8AF2CAE2BAD2AAC29121A46EB24308D
:100D6400FFAE1B051B741D2EF8A607AF2CAE2BADD2
:100D74002AAC29E47B0AFAF9F8121A468F2C8E2B36
:100D84008D2A8C2980B3E4F51CE51CC3951B5017F0
:100D9400C3E51B951CFF741C2FF8E6FF740F251C7C
:100DA400F8A607051C80E2740F251BF8E4F6FB7A0D
:100DB40000790F753606850E37AD09AF08121A8A09
:100DC400E51B75F008A42508F508753C06850E3D5D
:100DD4007B2EAD09FF1212CD74082508F508E47FB7
:100DE4000AFEFDFCAB30AA2FA92EA82DC3120BA41A
:100DF4005019753C06850E3D7B30AD09AF081212C3
:100E0400CD74082508F508E530803AE47B0AFAF940
:100E1400F8AF30AE2FAD2EAC2D121A46EF2430FBB6
:100E2400753C06850E3DAD09AF081212CD74082538
:100E340008F508E47B0AFAF9F8AF30AE2FAD2EAC12
:100E44002D121A46EB2430FB753C06850E3DAD0988
:050E5400AF081212CDF1
:010E59002276
:0A1A8A008F318D328B338A34893599
:101A9400E4F538AB33AA34A935853882758300124E
:101AA4000AB3FB602385363C85373DAD32AF311236
:101AB40012CD74082531F531D394784007E4F5311B
:081AC40005320532053880CB24
:011ACC0022F7
:041903008F578B5916
:10190700E4F55FF560E55A5407700BE55A131313B6
:10191700541FF562800AE55A131313541F04F56226
:101927008D62E562C3955A5057AD62AF57121C1DC1
:10193700855761E561C395595042E55E701BAB5B06
:10194700AA5CA95D0560E560AE5F7002055F14F5EE
:10195700828E83120AB3FF801AAB5BAA5CA95D056E
:1019670060E560AE5F7002055F14F5828E83120A30
:10197700B3F4FF7D01121BD7056180B7056280A212
:01198700223D
:10170900E4FD7FAE121BD7E4FDFF121BD7E4FD7F7A
:1017190010121BD7E4FD7F40121BD7E4FD7FDA12BC
:101729001BD7E4FD7F12121BD7E4FD7F20121BD7C4
:10173900E4FD7F02121BD7E4FD7FD3121BD7E4FD22
:10174900FF121BD7E4FD7FA1121BD7E4FD7FC8124E
:101759001BD7E4FD7FDB121BD7E4FD7F30121BD7BB
:10176900E4FD7FD8121BD7E4FD7F05121BD7E4FDEA
:101779007F81121BD7E4FD7FFF121BD7E4FD7FA8F1
:10178900121BD7E4FD7F3F121BD7E4FD7FD5121B47
:10179900D7E4FD7F80121BD7E4FD7FD9121BD7E464
:1017A900FD7FF1121BD7E4FD7F8D121BD7E4FD7F6E
:1017B90014121BD7E4FD7FA4121BD7E4FD7FA612E8
:1017C9001BD7E4FD7FAF121BD7121B72E4FDFF028A
:0217D9001C1DD5
:101623003E20002020004544495400534C454300CC
:101633000004494E5431360000000000464C4F412F
:101643005400000000004F5054494F4E5300000017
:101653005341564500000000000000000000000058
:101663000000000000000000000000000000000077
:101673000000000000000000000000000000000067
:101683000000030402050000000000000000000049
:101693000000000001000000000000010353544556
:1016A3005000000000000073494E54313600000022
:1016B3000073464C4F41540000000000000000003E
:1016C3000000000000000000000000000000000017
:1016D3000000000000000000000000000000000007
:1016E30000000000000000000000000000030606E8
:1016F30000000000000000000000000000000000E7
:06170300000000000000E0
:101C3C005800020000000000000000000000003FFF
:0B1C4C0080000000000000000000000D
:101C5800121709121B72121C87E490001AF09000E8
:081C680000F0A304F0020E5A83
:100E5A00E490001BF090001AE075F06BA42434F5BE
:100E6A0082E43416F583E493FF90001BE0FEC39FEF
:100E7A005059900000E090001BB5060AE0FD7BFF88
:100E8A007A1679238008E0FD7BFF7A167926753673
:100E9A0006E4F537FF121A8A90001AE075F06BA47F
:100EAA002435F9741635F0FA7BFFA3E075F00AA42D
:100EBA0029F9EA35F0FAE0FD753606E4F5377F10D0
:100ECA00121A8A90001BE004F0808A900001E07BED
:100EDA00FF70097A16792975360680087A16792EEE
:100EEA00753606E4F5377D07FF121A8AE490001B6F
:100EFA00F090001AE0FF75F06BA42434F582E43414
:100F0A0016F583E493FE90001BE0FDC39E400302A6
:100F1A000FFCEF75F06BA42485F582E43416F58393
:100F2A00E5822DF582E43583F583E4936403704BFF
:100F3A0090001BE0FEC00590001AE075F00CA42496
:100F4A0002F582E43400F58375F004EE120BC6E074
:100F5A00FCA3E0FDA3E0FEA3E0FF120A19EE33951D
:100F6A00E08F0D8E0CF50BF50A750E03750F06E46E
:100F7A00F510D0057F48121405806E90001BE0FF23
:100F8A0090001AE0FC75F06BA42485F582E434160F
:100F9A00F583E5822FF582E43583F583E4936404CF
:100FAA00704790001BE0FEFDC005EC75F00CA42410
:100FBA0002F582E43400F58375F004EE120BC6E004
:100FCA00FCA3E0FDA3E0FEA3E0FFE4FBFA79C87806
:100FDA0042120913120A198F0D8E0C8D0B8C0AE41A
:100FEA00F50ED0057F48120CA090001BE004F00219
:050FFA000EFB021D24A6
:10116300900001E0FB64017035900000E024FFFF74
:10117300E434FFFE90001AE075F06BA42434F5828A
:10118300E43416F583E493FD7583002FFFE5833E76
:10119300FE7C00120AF2900000EDF00212B7EB6041
:1011A300030212B790001AE0FF7046900000E0704F
:1011B30040EF75F00CA42402F582E43400F583C0FB
:1011C30083C082900000E0D082D08375F004120BBC
:1011D300C6C083C082E0FCA3E0FDA3E0FEA3E0FF62
:1011E30090000EE0F8A3E0F9A3E0FAA3E0FB0212FB
:1011F300AD900000E0FF90001AE0FE75F06BA424B0
:1012030085F582E43416F583E5822FF582E4358390
:10121300F583E493B4045AEE75F00CA42402F5822A
:10122300E43400F583C083C082900000E0D082D014
:101233008375F004120BC6C083C082E0F8A3E0F903
:10124300A3E0FAA3E0FBC000C001C002C0037F0A11
:101253007ED77D237C3C90000EE0F8A3E0F9A3E069
:10126300FAA3E0FB120913D003D002D001D000800F
:101273003990001AE075F00CA42402F582E43400DE
:10128300F583C083C082900000E0D082D08375F0E4
:1012930004120BC6C083C082E0FCA3E0FDA3E0FE02
:1012A300A3E0FFE4FBFA7980783F120822D082D0D2
:0712B30083120BBA020E5A70
:100FFF00900001E0FB64017034900000E02401FFD9
:10100F00E433FE90001AE075F06BA42434F582E40B
:10101F003416F583E493FD7583002FFFE5833EFEC1
:10102F007C00120AF2900000EDF0021160EB6003F9
:10103F0002116090001AE0FF7049900000E07043C9
:10104F00EF75F00CA42402F582E43400F583C0831D
:10105F00C082900000E0D082D08375F004120BC6DE
:10106F00C083C082E0FCA3E0FDA3E0FEA3E0FF90FD
:10107F00000EE0F8A3E0F9A3E0FAA3E0FB12081ECC
:10108F00021159900000E0FF90001AE0FE75F06B1E
:10109F00A42485F582E43416F583E5822FF582E4E6
:1010AF003583F583E493B40465EE75F00CA4240244
:1010BF00F582E43400F583C083C082900000E0D055
:1010CF0082D08375F004120BC6C083C082E0FCA3EC
:1010DF00E0FDA3E0FEA3E0FFC004C005C006C0070B
:1010EF007F0A7ED77D237C3C90000EE0F8A3E0F9C9
:1010FF00A3E0FAA3E0FB120913A804A905AA06AB03
:10110F0007D007D006D005D00412081E803C9000EF
:10111F001AE075F00CA42402F582E43400F583C0C4
:10112F0083C082900000E0D082D08375F004120B50
:10113F00C6C083C082E0FCA3E0FDA3E0FEA3E0FFF6
:10114F00E4FBFA798078BF120822D082D083120B89
:04115F00BA020E5A68
:1017DB00900001E06401600302186C900000E0FFD0
:1017EB0090001AE0FE75F06BA42485F582E43416A4
:1017FB00F583E5822FF582E43583F583E493B40218
:10180B0028EE75F06BA42495F582E43416F583E588
:10181B00822FF582E43583F583E49390001AF0E48C
:10182B00900000F0121B728040900000E0FF9000CF
:10183B001AE075F06BA42485F582E43416F583E584
:10184B00822FF582E43583F583E493FF6403600410
:10185B00EFB40407E4900001F0800EEFB4050A80AA
:0C186B0008900001E0700204F0020E5A28
:101ACD00900001E0B4012890001AE075F06BA42499
:101ADD009DF582E43416F583E49390001AF0D394C7
:101AED000A4002E4F0E4900000F0121B72800890AE
:0A1AFD000001E0700204F0020E5A2E
:10081B00020A85E86480F8E933E83360110460F07C
:10082B00ED33EC337009E8FCE9FDEAFEEBFF220443
:10083B0060DED3EB9FEA9EE99DE8C2E78CF0C2F73E
:10084B0095F0400CE8CCF8E9CDF9EACEFAEBCFFB0A
:10085B00120A5085D0F05804700320D5B3E8047009
:10086B00075002B2D5020A8F92D5EC0460F7E4CCA4
:10087B00C0E0C398F8603B94186008400DD0E0FBD3
:10088B00020A67E4FBFAC9FC8028E830E406E4C9F5
:10089B00FBE4CAFCE830E305E4C9CACBFCE8540727
:1008AB006010F8C3E913F9EA13FAEB13FBEC13FC32
:1008BB00D8F130F52FC3E49CFCEF9BFFEE9AFEEDD5
:1008CB0099FDD0E0FBEF4E4D4C701222DB03020A78
:1008DB008CEC2CFCEF33FFEE33FEED33FDED30E70C
:1008EB00EB020A67EF2BFFEE3AFEED39FDD0E0FB92
:1008FB0050130BBB0003020A8FED13FDEE13FEEF3B
:08090B0013FFEC13FC020A6764
:10091300EC4D6011E8497017ED33EC3304600DE4DE
:10092300FCFFFEFD22E933E8330470F8020A851266
:100933000A5058046009E4CC248150062850090267
:100943000A8F284003020A8CC0E0EB4A7044B98046
:1009530006D0E0FB020A7BEF4E701CBD8008EBFF64
:10096300EAFEE9FD80EBE98DF0A4FEE5F00209FC67
:10097300E9CDF9EAFEEBFFEF89F0A4FCE5F0CE89BF
:10098300F0A42EFFE435F0CD89F0A42DFEE435F07C
:100993008067EF4E7005BD80D780C3EF8BF0A4ACAA
:1009A300F0EE8BF0A42CFCE435F0F8EF8AF0A42CE5
:1009B300E5F038FCE433CB8DF0A42CFCE5F03BF8F8
:1009C300EE8AF0A42CFCE5F038F8E433CF89F0A4E8
:1009D3002CFCE5F038CF3400CE89F0A42FFFE5F0EE
:1009E3003EFEE433C98DF0A42EFEE5F039CD8AF046
:1009F300A42FFFE5F03EFEE43DFD33D0E0FB5007BE
:100A03000BBB000F020A8FEC2CFCEF33FFEE33FE1F
:060A1300ED33FD020A674D
:100A1900EDD2E7CD33EC3392D524814006E4FFFED5
:100A2900FDFC22FCE4CFCECDCC24E0501174FF8034
:100A3900EDC3CC13CCCD13CDCE13CECF13CF0470D1
:070A4900F030D5DE020B9630
:100A5000E9D2E7C933E833F892D5EDD2E7CD33ECEC
:070A600033FC5002B2D52265
:100A6700EC30E7100FBF000C0EBE00080DBD0004F0
:100A77000BEB6014A2D5EB13FCED92E7FD2274FF9C
:100A8700FCFDFEFF22E480F8A2D574FF13FC7D80F5
:030A9700E480EF09
:030000000218776C
:0C187700787FE4F6D8FD75816F0218BE82
:100A9A00BB010689828A83E0225002E722BBFE025A
:090AAA00E32289828A83E493228D
:100AB300BB010CE58229F582E5833AF583E02250F8
:100AC30006E92582F8E622BBFE06E92582F8E22242
:0D0AD300E58229F582E5833AF583E493225C
:100AE000BB010689828A83F0225002F722BBFE01F5
:020AF000F322EF
:100AF200BC000BBE0029EF8DF084FFADF022E4CCE8
:100B0200F875F008EF2FFFEE33FEEC33FCEE9DECB0
:100B1200984005FCEE9DFE0FD5F0E9E4CEFD22EDF6
:100B2200F8F5F0EE8420D21CFEADF075F008EF2F40
:100B3200FFED33FD4007985006D5F0F222C398FD31
:050B42000FD5F0EA22CE
:100B4700E88FF0A4CC8BF0A42CFCE98EF0A42CFC4D
:100B57008AF0EDA42CFCEA8EF0A4CDA8F08BF0A4CB
:100B67002DCC3825F0FDE98FF0A42CCD35F0FCEB2A
:100B77008EF0A4FEA9F0EB8FF0A4CFC5F02ECD39EF
:0F0B8700FEE43CFCEAA42DCE35F0FDE43CFC225C
:101A4600C2D5E830E70FB2D5E4C39BFBE49AFAE4CB
:101A560099F9E498F8EC30E717B2D5121A7C120C13
:101A66000EE4C39BFBE49AFAE499F9E498F8800340
:101A7600120C0E30D50DE4C39FFFE49EFEE49DFDDF
:041A8600E49CFC22BE
:0E0B9600C3E49FFFE49EFEE49DFDE49CFC2270
:100BA400EB9FF5F0EA9E42F0E99D42F0EC6480C8C8
:060BB40064809845F02268
:0C0BBA00ECF0A3EDF0A3EEF0A3EFF022AE
:0C0BC600A42582F582E5F03583F583223A
:1018830002152AE493A3F8E493A34003F68001F23C
:1018930008DFF48029E493A3F85407240CC8C33366
:1018A300C4540F4420C8834004F456800146F6DF35
:1018B300E4800B0102040810204080901C3CE47E6D
:1018C300019360BCA3FF543F30E509541FFEE4932A
:1018D300A360010ECF54C025E060A840B8E493A3F1
:1018E300FAE493A3F8E493A3C8C582C8CAC583CA1C
:1018F300F0A3C8C582C8CAC583CADFE9DEE780BED4
:011C5700008C
:100BD20075F008758200EF2FFFEE33FECD33CDCCDA
:100BE20033CCC58233C5829BED9AEC99E58298405D
:100BF2000CF582EE9BFEED9AFDEC99FC0FD5F0D63A
:100C0200E4CEFBE4CDFAE4CCF9A88222B800C1B963
:100C12000059BA002DEC8BF084CFCECDFCE5F0CBA1
:100C2200F97818EF2FFFEE33FEED33FDEC33FCEBDA
:100C320033FB10D703994004EB99FB0FD8E5E4F995
:100C4200FA227818EF2FFFEE33FEED33FDEC33FC82
:100C5200C933C910D7059BE99A4007EC9BFCE99A76
:100C6200F90FD8E0E4C9FAE4CCFB2275F010EF2FBB
:100C7200FFEE33FEED33FDCC33CCC833C810D707BB
:100C82009BEC9AE899400AED9BFDEC9AFCE899F8F6
:0E0C92000FD5F0DAE4CDFBE4CCFAE4C8F92289
:00000001FF
