:1016E700121AFDE4F556744E2556F8E4F60556E54C
:1016F70056B404F2054DE54DD3940950030217D1B2
:10170700E4F54874522548F8E6FF74492548F8A6D9
:1017170007E5487004A2B18014E548B40104A2B0FB
:10172700800BE548B40204A2B28002A2B3E433FFFF
:1017370074522548F8A60774522548F8E6702C74A9
:10174700492548F8E6B40123E54814600F146011F1
:101757001460132403705D12132080581211BC808B
:10176700531218CB804E121CC1804974522548F879
:10177700E6704174492548F8E67039744E2548F8F3
:1017870006744E2548F8E6FFC39464402EEF20E028
:101797002AE54814600F1460111460132403701BAA
:1017A70012132080161211BC80111218CB800C1254
:1017B7001CC18007744E2548F8E4F60548E548C380
:1017C7009404500302170AE4F54D7F017E00121EB0
:0417D700DA0216FB21
:101F3F007C007D0A120BA9EF1F70011E144E70F763
:011F4F00226F
:101EDA00AB07AA06EB1B70011A144A60097FB67E8B
:071EEA0003121F3F80EE22EE
:041F7E00000000223D
:061F5F00121F65121F8233
:071F65000000000000002253
:031F8200D2A122C7
:031F8500C2A122D4
:031F8800D2A022C2
:031F8B00C2A022CF
:061F7800A2A0E433FF22E9
:101F1B00121F88121F82121F65121F8B121F650260
:021F2B001F8510
:101F2D00121F8B121F82121F65121F88121F65024E
:021F3D001F85FE
:0F1F5000121F85121F8B121F5F121F85021F8821
:0C1F6C00121F85121F88121F5F021F85C4
:061D340025E0FF121E482D
:101D3A00E4FDFC121F82121F65121F78EF60170D57
:101D4A00BD00010C121F7ED3ED9464EC940040E9AF
:0B1D5A00121F2D7F0122121F857F0049
:011D6500225B
:101E4800E4FE121F85EF30E705121F888003121F7A
:101E58008BEF25E0FF121F5F121F85121F650EBE54
:021E680008E38D
:011E6A002255
:021DC900AE0763
:101DCB00E4FDFC121F85121F65121F82EC25E0FC3F
:101DDB00121F78EF60010C121F650DBD08E5EE7048
:0B1DEB0005121F6C8003121F50AF0494
:011DF60022CA
:101BEA008D428B438A448945121F1BEF121D34EF25
:101BFA0060037F0122AF42121E48121D3AEF6003B2
:101C0A007F0122E5471547AE46700215464E601A17
:101C1A00AB430545E545AA447002054414F9120B85
:101C2A0051121D36EF60DC7F0122121F2D7F002228
:101B7C008F0D8D0E8B0F8A108911121F1BE50D1204
:101B8C001D34EF60037F0122AF0E121E48121D3A66
:101B9C00EF60037F0122121F1BE50D25E0440112AB
:101BAC001D36EF60037F0122E5131513AE12700290
:101BBC0015124E6023E513451260047F0180027FED
:101BCC0000121DC9AB0F0511E511AA10700205100A
:0E1BDC0014F9EF120B9780D0121F2D7F0022FC
:100003000000000000000000002F000000000700B7
:10001300070000147F147F1400242A7F2A12006231
:1000230064081323003649552250000005030000DD
:1000330000001C224100000041221C000014083E65
:1000430008140008083E0808000000A0600000082B
:10005300080808080000606000000020100804027F
:10006300003E5149453E0000427F4000004261513D
:100073004946002141454B31001814127F100027D7
:1000830045454539003C4A4949300001710905039A
:1000930000364949493600064949291E00003636CB
:1000A300000000005636000000081422410000142E
:1000B300141414140000412214080002015109060B
:1000C30000324959513E007C1211127C007F49498C
:1000D3004936003E41414122007F4141221C007FBD
:1000E30049494941007F09090901003E4149497ACB
:1000F300007F0808087F0000417F41000020404145
:100103003F01007F08142241007F40404040007FB0
:10011300020C027F007F0408107F003E4141413EF4
:10012300007F09090906003E4151215E007F09193C
:1001330029460046494949310001017F0101003F39
:100143004040403F001F2040201F003F4038403FB9
:10015300006314081463000708700807006151491D
:10016300454300007F41410000552A552A550000B0
:1001730041417F000004020102040040404040402E
:10018300000001020400002054545478007F4844C6
:10019300443800384444442000384444487F0038FD
:1001A3005454541800087E0901020018A4A4A47C26
:1001B300007F080404780000447D400000408084F0
:1001C3007D00007F102844000000417F4000007C38
:1001D30004180478007C0804047800384444443844
:1001E30000FC242424180018242418FC007C080490
:1001F300040800485454542000043F444020003C69
:100203004040207C001C2040201C003C4030403CEF
:10021300004428102844001CA0A0A07C004464547F
:100223004C441414141414140000000000000000C3
:100233000000000000000000000000F800000000C3
:10024300000000333000000000100C06100C060004
:10025300000000000000000040C07840C07840006B
:10026300043F04043F040400007088FC08300000CD
:10027300001820FF211E0000F008F000E018000025
:1002830000211C031E211E0000F0088870000000DE
:100293001E2123241927211010160E000000000030
:1002A3000000000000000000000000E0180402004D
:1002B300000000071820400000020418E0000000BE
:1002C3000040201807000000404080F080404000BC
:1002D3000202010F01020200000000F00000000012
:1002E3000101011F010101000000000000000000E6
:1002F30080B070000000000000000000000000005B
:1003030000010101010101010000000000000000E3
:10031300003030000000000000000000806018047E
:10032300006018060100000000E010080810E0005B
:10033300000F102020100F00001010F80000000024
:100343000020203F2020000000700808088870006B
:1003530000302824222130000030088888483000EB
:100363000018202020110E000000C02010F800000B
:1003730000070424243F240000F8088888080800A4
:100383000019212020110E0000E0108888180000B9
:10039300000F112020110E0000380808C83808008B
:1003A3000000003F0000000000708808088870000B
:1003B300001C222121221C0000E010080810E0008C
:1003C3000000312222110F00000000C0C000000015
:1003D300000000303000000000000080000000003A
:1003E3000000806000000000000080402010080032
:1003F30000010204081020004040404040404000FB
:1004030004040404040404000008102040800000D5
:100413000020100804020100007048080808F000DA
:100423000000003036010000C030C828E810E000AA
:100433000718272423140B000000C038E000000035
:10044300203C23020227382008F88888887000009F
:10045300203F202020110E00C03008080808380073
:10046300071820202010080008F808080810E000EA
:10047300203F202020100F0008F88888E80810008B
:10048300203F20202320180008F88888E80810005F
:10049300203F200003000000C03008080838000097
:1004A30007182020221E020008F808000008F80898
:1004B300203F210101213F20000808F8080800001F
:1004C3000020203F2020000000000808F808080052
:1004D300C08080807F00000008F888C028180800CA
:1004E300203F20012638200008F808000000000003
:1004F300203F20202020300008F8F800F8F80800FA
:10050300203F003F003F200008F830C00008F808F3
:10051300203F200007183F00E01008080810E00003
:100523000F10202020100F0008F808080808F0001A
:10053300203F210101010000E01008080810E0003D
:100543000F18242438504F0008F8888888887000D2
:10055300203F2000030C3020007088080808380072
:100563000038202121221C00180808F80808180068
:100573000000203F2000000008F808000008F808E9
:10058300001F202020201F000878880000C838089A
:10059300000007380E010000F80800F80008F80012
:1005A300033C0700073C03000818688080681808AC
:1005B30020302C03032C30200838C800C83808002A
:1005C3000000203F2000000010080808C838080079
:1005D3002038262120201800000000FE020202001D
:1005E3000000007F40404000000C30C000000000CD
:1005F300000000010638C00000020202FE000000F5
:10060300004040407F00000000000402020204009A
:1006130000000000000000000000000000000000D7
:1006230080808080808080800002020400000000BF
:1006330000000000000000000000808080800000B7
:100643000019242222223F2008F8008080000000A5
:10065300003F112020110E00000000808080000068
:10066300000E112020201100000000808088F80077
:10067300000E112020103F200000808080800000A9
:10068300001F222222221300008080F0888888180D
:100693000020203F20200000000080808080800018
:1006A300006B94949493600008F8008080800000AD
:1006B300203F210000203F20008098980000000088
:1006C3000020203F202000000000008098980000B8
:1006D30000C08080807F000008F8000080808000D8
:1006E300203F24022D302000000808F800000000FD
:1006F3000020203F202000008080808080808000B8
:10070300203F20003F20003F808000808080000049
:10071300203F210000203F200000808080800000D7
:10072300001F202020201F00808000808000000008
:1007330080FFA12020110E00000000808080800037
:10074300000E112020A0FF80808080008080800028
:1007530020203F2120000100000080808080800055
:100763000033242424241900008080E080800000CA
:100773000000001F20200000808000000080800017
:10078300001F202020103F20808080000080808078
:1007930000010E3008060100808000800080808008
:1007A3000F300C030C300F0000808000808080002D
:1007B3000020312E0E312000808080000080808058
:1007C30080818E7018060100008080808080800008
:1007D3000021302C2221300000000000807C020226
:1007E30000000000003F404000000000FF00000048
:1007F30000000000FF0000000002027C80000000F7
:100803000040403F00000000000601010202040412
:080813000000000000000000DD
:011F8E002230
:051E200024B0FFE4FD09
:101E25008F40ED7B007A007940600A754600754762
:101E3500017D408008754600754701E4FD7F3C1231
:031E45001BEA2273
:101E6B008F3FED121E20E53F54F0C4540F4410FF7A
:0F1E7B00E4FD121E25E53F540FFFE4FD021E2576
:101EF100E4FD7F8D121E25E4FD7F14121E25E4FDF5
:051F01007FAF021E2568
:101F0600E4FD7F8D121E25E4FD7F10121E25E4FDE3
:051F16007FAE021E2554
:101D6600E4F508E508121E20E4FDFF121E25E4FD39
:101D76007F10121E25E4F5097D01E4FF121E2505DC
:101D860009E509C3948040F00508E508C3940840B6
:011D9600D27A
:011D97002229
:10147700E51175F008A42508FF850F3C85103D7B15
:0314870020AD098C
:06148A008F398D3A8B3B07
:10149000E4F53E74E0253BF53BE539D3947F400706
:1014A000E4F539053A053AE53C641060030215633A
:1014B000AD3AAF39121E6BE4F53EE53D75F01070A4
:1014C0001DE53BA4242BF582E5F03402F583E5828B
:1014D000253EF582E43583F583E493FF801CE53BEC
:1014E000A4242BF582E5F03402F583E582253EF550
:1014F00082E43583F583E493F4FF7D01121E250514
:101500003EE53EC3940840B2E53A04FDAF39121EF1
:101510006BE4F53EE53D75F010701DE53BA424330A
:10152000F582E5F03402F583E582253EF582E43567
:1015300083F583E493FF801CE53BA42433F582E527
:10154000F03402F583E582253EF582E43583F583A8
:10155000E493F4FF7D01121E25053EE53EC3940889
:1015600040B222E53C64067058AD3AAF39121E6BAA
:10157000E4F53EE53D75F006701DE53BA42403F55A
:1015800082E5F03400F583E582253EF582E435837B
:10159000F583E493FF801CE53BA42403F582E5F08A
:1015A0003400F583E582253EF582E43583F583E456
:1015B00093F4FF7D01121E25053EE53EC3940640CF
:0115C000B278
:0115C1002207
:041CFB008F578D581A
:101CFF00E4755C01F55BF55AF559AF581558EF606F
:101D0F001BAB5CAA5BA95AA859AF57E4FCFDFE12A6
:101D1F000BFE8F5C8E5B8D5A8C5980DEAF5CAE5B99
:041D2F00AD5AAC59A4
:011D3300228D
:0415C2008F088D09F8
:1015C600E4F511F512850813AB0DAA0CA90BA80AB0
:1015D600E8335022AF0DAE0CAD0BAC0A120C4D8F9A
:1015E6000D8E0C8D0B8C0AE50824F8FF850F3C85C3
:1015F600103D7B2D800DE50824F8FF850F3C8510F6
:101606003D7B20AD0912148AAF0DAE0CAD0BAC0AB2
:10161600EC4D4E4F7023850F3C85103D7B30AD0958
:10162600AF0812148A751101E511C3950E40030225
:1016360016E6121477051180EFE4F512E4FFFEFDBD
:10164600FCAB0DAA0CA90BA80AD3120C5B4044E50F
:1016560012940A503EE47B0AFAF9F8AF0DAE0CADCF
:101666000BAC0A121C3AAF03AE12051274202EF50B
:1016760082E43400F583EFF0AF0DAE0CAD0BAC0A8F
:10168600E47B0AFAF9F8121C3A8F0D8E0C8D0B8C3E
:101696000A80A9E4F511E511C395125032E51175DA
:1016A600F008A42508FFE511FDE512C39DFDE494AD
:1016B60000FC741F2DF58274003CF583E02430FB9A
:1016C600850F3C85103DAD0912148A051180C7852A
:1016D6001211E511C3950E5007121477051180F209
:0116E60022E1
:041002008F088D09BD
:10100600E4F51BF51CAB0DAA0CA90BA80AE8335096
:1010160022AF0DAE0CAD0BAC0A120C4D8F0D8E0C23
:101026008D0B8C0AE50824F8FF753C06850E3D7B82
:101036002D800DE50824F8FF753C06850E3D7B20C6
:10104600AD0912148AE47B64FAF9F8AF0DAE0CAD63
:101056000BAC0A121C3A8F2C8E2B8D2A8C29E47B22
:1010660064FAF9F8AF0DAE0CAD0BAC0A121C3AAC33
:1010760000AD01AE02AF038F308E2F8D2E8C2DAFBB
:101086002CAE2BAD2AAC29EC4D4E4F700CAF1B0588
:101096001B741D2FF87630804DE4FFFEFDFCAB2C53
:1010A600AA2BA92AA829D3120C5B403AE47B0AFA98
:1010B600F9F8AF2CAE2BAD2AAC29121C3AEB243032
:1010C600FFAE1B051B741D2EF8A607AF2CAE2BAD6D
:1010D6002AAC29E47B0AFAF9F8121C3A8F2C8E2BDB
:1010E6008D2A8C2980B3E4F51CE51CC3951B50178B
:1010F600C3E51B951CFF741C2FF8E6FF740F251C17
:10110600F8A607051C80E2740F251BF8E4F6FB7AA7
:1011160000790F753606850E37AD09AF08121C7EAD
:10112600E51B75F008A42508F508753C06850E3DF7
:101136007B2EAD09FF12148A74082508F508E47F92
:101146000AFEFDFCAB30AA2FA92EA82DC3120C5BFC
:101156005019753C06850E3D7B30AD09AF0812145B
:101166008A74082508F508E530803AE47B0AFAF91E
:10117600F8AF30AE2FAD2EAC2D121C3AEF2430FB5B
:10118600753C06850E3DAD09AF0812148A74082514
:1011960008F508E47B0AFAF9F8AF30AE2FAD2EACAD
:1011A6002D121C3AEB2430FB753C06850E3DAD092D
:0511B600AF0812148ACD
:0111BB002211
:0A1C7E008F318D328B338A348935A3
:101C8800E4F538AB33AA34A9358538827583001258
:101C98000B6AFB602385363C85373DAD32AF311288
:101CA800148A74082531F531D394784007E4F53166
:081CB80005320532053880CB2E
:011CC0002201
:10199F00E4FD7FAE121E25E4FDFF121E25E4FD7F40
:1019AF0010121E25E4FD7F40121E25E4FD7FDA1282
:1019BF001E25E4FD7F12121E25E4FD7F20121E2539
:1019CF00E4FD7F02121E25E4FD7FD3121E25E4FDE8
:1019DF00FF121E25E4FD7FA1121E25E4FD7FC81214
:1019EF001E25E4FD7FDB121E25E4FD7F30121E2530
:1019FF00E4FD7FD8121E25E4FD7F05121E25E4FDB0
:101A0F007F81121E25E4FD7FFF121E25E4FD7FA8B6
:101A1F00121E25E4FD7F3F121E25E4FD7FD5121E09
:101A2F0025E4FD7F80121E25E4FD7FD9121E25E4DB
:101A3F00FD7FF1121E25E4FD7F8D121E25E4FD7F33
:101A4F0014121E25E4FD7FA4121E25E4FD7FA612AD
:101A5F001E25E4FD7FAF121E25121D66E4FDFF0259
:021A6F001E6BEC
:1017DB003E20002020004544495400534C45430013
:1017EB00535644210020202020000004494E543140
:1017FB00360000000000464C4F4154000000000032
:10180B004F5054494F4E5300000053415645000072
:10181B0000000000000000000000000000000000BD
:10182B0000000000000000000000000000000000AD
:10183B00000000000000000000000000030402058F
:10184B00000000000000000000000000000001008C
:10185B00000000000001035354455000000000003D
:10186B000073494E5431360000000073464C4F4113
:10187B005400000000000000000000000000000009
:10188B00000000000000000000000000000000004D
:10189B00000000000000000000000000000000003D
:1018AB00000000000000000306060000000000001E
:1018BB00000000000000000000000000000000001D
:101E8A005800020000000000000000000000003FAF
:0B1E9A008000000000000000000000BD
:101AFD0012199F121D66121EF1E490001AF090004B
:101B0D0000F0A304F07F02121D9890001B120C71BF
:101B1D00E4FFFEFDFC90001BE0F8A3E0F9A3E0FA62
:101B2D00A3E0FB120A196036E4FFFE7D7A7CC490B7
:101B3D00001BE0F8A3E0F9A3E0FAA3E0FB120A19F9
:101B4D00401CE4FFFE7D7A7C4490001BE0F8A3E08E
:101B5D00F9A3E0FAA3E0FB120A196010400EE4F5B8
:0F1B6D000CF50BF50AF5097F02121EC0020D5789
:100D5700E490001FF090001AE075F06BA424F6F5FC
:100D670082E43417F583E493FF90001FE0FEC39FEE
:100D7700505B900000E090001FB5060AE0FD7BFF86
:100D87007A1779DB8008E0FD7BFF7A1779DE753605
:100D970006E4F537FF121C7E90001AE075F06BA48D
:100DA70024F7F9741735F0FA7BFF90001FE075F010
:100DB7000AA429F9EA35F0FAE0FD753606E4F537B5
:100DC7007F10121C7E90001FE004F08088900001C5
:100DD700E07BFF70097A1779E175360680087A1784
:100DE70079E6753606E4F5377D07FF121C7EE49039
:100DF700001FF090001AE0FF75F06BA424F6F5824F
:100E0700E43417F583E493FE90001FE0FDC39E4092
:100E170003020FE0EF75F06BA42447F582E4341862
:100E2700F583E5822DF582E43583F583E493640346
:100E3700701F90001FE0FEC00590001AE075F00CCF
:100E4700A42402F582E43400F58375F004EE020F62
:100E57002B90001FE0FF90001AE0FC75F06BA424B4
:100E670047F582E43418F583E5822FF582E435836C
:100E7700F583E4936404701D90001FE0FEFDC00538
:100E8700EC75F00CA42402F582E43400F58375F0C8
:100E970004EE020FAA90001FE0FF90001AE075F021
:100EA7006BA42447F582E43418F583E5822FF58295
:100EB700E43583F583E49364066003020FD7EF24D8
:100EC700FE7003020F5A046003020FD7E4FF121EDD
:100ED700A6AC06AD07EC120A9790001AE075F00C65
:100EE700A42402F582E43400F583C083C082900015
:100EF7001FE0FBD082D08375F004120C7D120C71B9
:100F0700AD03C00590001AE075F00CA42402F58229
:100F1700E43400F583C083C08290001FE0D082D004
:100F27008375F004120C7DE0FCA3E0FDA3E0FEA3B3
:100F3700E0FF120AD0EE3395E08F0D8E0CF50BF51E
:100F47000A750E03750F06E4F510D0057F481215D4
:100F5700C2807D7F02121D9890001AE075F00CA4E4
:100F67002402F582E43400F583C083C08290001F19
:100F7700E0FBD082D08375F004120C7D120C71ADAA
:100F870003C00590001AE075F00CA42402F582E472
:100F97003400F583C083C08290001FE0D082D083E5
:100FA70075F004120C7DE0FCA3E0FDA3E0FEA3E0D6
:100FB700FFE4FBFA79C87842120913120AD08F0DA1
:100FC7008E0C8D0B8C0AE4F50ED0057F48121002AB
:100FD70090001FE004F0020DFAE55D7BFF60067AE2
:100FE7001779EB80047A1779F0753606E4F5377DC3
:0B0FF70006FF121C7EE4F55D021F8E59
:10132000900001E0FB64017035900000E024FFFFB5
:10133000E434FFFE90001AE075F06BA424F6F58209
:10134000E43417F583E493FD7583002FFFE5833EB6
:10135000FE7C00120BA9900000EDF0021474EB600B
:101360000302147490001AE0FF7046900000E070D1
:1013700040EF75F00CA42402F582E43400F583C03C
:1013800083C082900000E0D082D08375F004120CFC
:101390007DC083C082E0FCA3E0FDA3E0FEA3E0FFEC
:1013A00090000EE0F8A3E0F9A3E0FAA3E0FB02143A
:1013B0006A900000E0FF90001AE0FE75F06BA42434
:1013C00047F582E43418F583E5822FF582E435830E
:1013D000F583E493B4045AEE75F00CA42402F5826C
:1013E000E43400F583C083C082900000E0D082D056
:1013F0008375F004120C7DC083C082E0F8A3E0F98D
:10140000A3E0FAA3E0FBC000C001C002C0037F0A52
:101410007ED77D237C3C90000EE0F8A3E0F9A3E0AA
:10142000FAA3E0FB120913D003D002D001D0008050
:101430003990001AE075F00CA42402F582E434001F
:10144000F583C083C082900000E0D082D08375F025
:1014500004120C7DC083C082E0FCA3E0FDA3E0FE8B
:10146000A3E0FFE4FBFA7980783F120822D082D013
:0714700083120C71020D57FD
:1011BC00900001E0FB64017034900000E02401FF1A
:1011CC00E433FE90001AE075F06BA424F6F582E48B
:1011DC003417F583E493FD7583002FFFE5833EFE02
:1011EC007C00120BA9900000EDF002131DEB6003C4
:1011FC0002131D90001AE0FF7049900000E070434C
:10120C00EF75F00CA42402F582E43400F583C0835E
:10121C00C082900000E0D082D08375F004120C7D67
:10122C00C083C082E0FCA3E0FDA3E0FEA3E0FF903E
:10123C00000EE0F8A3E0F9A3E0FAA3E0FB12081E0D
:10124C00021316900000E0FF90001AE0FE75F06BA0
:10125C00A42447F582E43418F583E5822FF582E463
:10126C003583F583E493B40465EE75F00CA4240285
:10127C00F582E43400F583C083C082900000E0D096
:10128C0082D08375F004120C7DC083C082E0FCA375
:10129C00E0FDA3E0FEA3E0FFC004C005C006C0074C
:1012AC007F0A7ED77D237C3C90000EE0F8A3E0F90A
:1012BC00A3E0FAA3E0FB120913A804A905AA06AB44
:1012CC0007D007D006D005D00412081E803C900031
:1012DC001AE075F00CA42402F582E43400F583C006
:1012EC0083C082900000E0D082D08375F004120C91
:1012FC007DC083C082E0FCA3E0FDA3E0FEA3E0FF81
:10130C00E4FBFA798078BF120822D082D083120CC9
:04131C0071020D57F6
:1018CB00900001E064016003021994900000E0FFB6
:1018DB0090001AE0FE75F06BA42447F582E43418EF
:1018EB00F583E5822FF582E43583F583E493B40227
:1018FB0028EE75F06BA42457F582E43418F583E5D4
:10190B00822FF582E43583F583E49390001AF0E49B
:10191B00900000F0121D668078900000E0FF9000B0
:10192B001AE075F06BA42447F582E43418F583E5CF
:10193B00822FF582E43583F583E493FF640360041F
:10194B00EFB40407E4900001F08046EF64057041AA
:10195B00900002E0FCA3E0FDA3E0FEA3E0FF120A6F
:10196B00D0AD07AC06E4FF121DF7900006E0FCA318
:10197B00E0FDA3E0FEA3E0F50C8E0B8D0A8C097F36
:10198B0002121EC0755D018008900001E070020418
:04199B00F0020D57F2
:101CC100900001E0B4012890001AE075F06BA424A3
:101CD1005FF582E43418F583E49390001AF0D3940D
:101CE1000A4002E4F0E4900000F0121D66800890C2
:0A1CF1000001E0700204F0020D573C
:061DF700AB05AA04AD07D4
:101DFD00EAFF3395E0EFF508EBF5097B007A007902
:101E0D00087546007547027F50121BEA7F0A7E0057
:031E1D00021EDAC8
:021EA600AD0786
:101EA8007B007A0079087512007513027F50121BA7
:071EB8007CE508FEE509FFCF
:011EBF002200
:021EC000AD076C
:101EC2007B007A0079097546007547047F50121B22
:081ED200EA7F0A7E00021EDA1D
:021D98008F08B2
:101D9A00E4F50CF50BF50AF509FB7A007909F51259
:101DAA00751304AD087F50121B7CEF60097F337EE8
:0E1DBA00337DB37C3F22AF0CAE0BAD0AAC09FB
:011DC80022F8
:10081B00020B3CE86480F8E933E83360110460F0C4
:10082B00ED33EC337009E8FCE9FDEAFEEBFF220443
:10083B0060DED3EB9FEA9EE99DE8C2E78CF0C2F73E
:10084B0095F0400CE8CCF8E9CDF9EACEFAEBCFFB0A
:10085B00120B0785D0F05804700320D5B3E8047051
:10086B00075002B2D5020B4692D5EC0460F7E4CCEC
:10087B00C0E0C398F8603B94186008400DD0E0FBD3
:10088B00020B1EE4FBFAC9FC8028E830E406E4C93D
:10089B00FBE4CAFCE830E305E4C9CACBFCE8540727
:1008AB006010F8C3E913F9EA13FAEB13FBEC13FC32
:1008BB00D8F130F52FC3E49CFCEF9BFFEE9AFEEDD5
:1008CB0099FDD0E0FBEF4E4D4C701222DB03020B77
:1008DB0043EC2CFCEF33FFEE33FEED33FDED30E755
:1008EB00EB020B1EEF2BFFEE3AFEED39FDD0E0FBDA
:1008FB0050130BBB0003020B46ED13FDEE13FEEF83
:08090B0013FFEC13FC020B1EAC
:10091300EC4D6011E8497017ED33EC3304600DE4DE
:10092300FCFFFEFD22E933E8330470F8020B3C12AE
:100933000B0758046009E4CC2481500628500902AF
:100943000B46284003020B43C0E0EB4A7044B980D6
:1009530006D0E0FB020B32EF4E701CBD8008EBFFAC
:10096300EAFEE9FD80EBE98DF0A4FEE5F00209FC67
:10097300E9CDF9EAFEEBFFEF89F0A4FCE5F0CE89BF
:10098300F0A42EFFE435F0CD89F0A42DFEE435F07C
:100993008067EF4E7005BD80D780C3EF8BF0A4ACAA
:1009A300F0EE8BF0A42CFCE435F0F8EF8AF0A42CE5
:1009B300E5F038FCE433CB8DF0A42CFCE5F03BF8F8
:1009C300EE8AF0A42CFCE5F038F8E433CF89F0A4E8
:1009D3002CFCE5F038CF3400CE89F0A42FFFE5F0EE
:1009E3003EFEE433C98DF0A42EFEE5F039CD8AF046
:1009F300A42FFFE5F03EFEE43DFD33D0E0FB5007BE
:100A03000BBB000F020B46EC2CFCEF33FFEE33FE67
:060A1300ED33FD020B1E95
:100A190074F8CC6480CCC86480C8F58204604FC384
:100A2900EB9FF5F0EA9E42F0E99D42F0E89C45F023
:100A3900603C501DE5825FFFE582D313CB5BCBF4AD
:100A49002B5582FB50280ABA002409B900200880D6
:100A59001DE5825BFBE582D313CF5FCFF4C3132F70
:100A69005582FF50090EBE00050DBD00010CC3EBF8
:100A79009FF5F0EA9E42F0E99D42F0E89C45F0605E
:090A890007CC4820E701B3EC2280
:100A920075F020800E75F010800575F0087D007EDF
:100AA200007F003392D530D503120C4DEC33401049
:100AB200EF33FFEE33FEED33FDEC33FCD5F0ED22E8
:0E0AC200E5F0247EA2D513CC92E7CDCEFF2224
:100AD000EDD2E7CD33EC3392D524814006E4FFFE1E
:100AE000FDFC22FCE4CFCECDCC24E0501174FF807D
:100AF000EDC3CC13CCCD13CDCE13CECF13CF04701A
:070B0000F030D5DE020C4DC0
:100B0700E9D2E7C933E833F892D5EDD2E7CD33EC34
:070B170033FC5002B2D522AD
:100B1E00EC30E7100FBF000C0EBE00080DBD000438
:100B2E000BEB6014A2D5EB13FCED92E7FD2274FFE4
:100B3E00FCFDFEFF22E480F8A2D574FF13FC7D803D
:030B4E00E480EF51
:03000000021A7170
:0C1A7100787FE4F6D8FD75815D021AB89C
:100B5100BB010689828A83E0225002E722BBFE02A2
:090B6100E32289828A83E49322D5
:100B6A00BB010CE58229F582E5833AF583E0225040
:100B7A0006E92582F8E622BBFE06E92582F8E2228A
:0D0B8A00E58229F582E5833AF583E49322A4
:100B9700BB010689828A83F0225002F722BBFE013D
:020BA700F32237
:100BA900BC000BBE0029EF8DF084FFADF022E4CC30
:100BB900F875F008EF2FFFEE33FEEC33FCEE9DECF9
:100BC900984005FCEE9DFE0FD5F0E9E4CEFD22ED3F
:100BD900F8F5F0EE8420D21CFEADF075F008EF2F89
:100BE900FFED33FD4007985006D5F0F222C398FD7A
:050BF9000FD5F0EA2217
:100BFE00E88FF0A4CC8BF0A42CFCE98EF0A42CFC96
:100C0E008AF0EDA42CFCEA8EF0A4CDA8F08BF0A413
:100C1E002DCC3825F0FDE98FF0A42CCD35F0FCEB72
:100C2E008EF0A4FEA9F0EB8FF0A4CFC5F02ECD3937
:0F0C3E00FEE43CFCEAA42DCE35F0FDE43CFC22A4
:101C3A00C2D5E830E70FB2D5E4C39BFBE49AFAE4D5
:101C4A0099F9E498F8EC30E717B2D5121C70120C27
:101C5A00C5E4C39BFBE49AFAE499F9E498F8800393
:101C6A00120CC530D50DE4C39FFFE49EFEE49DFD32
:041C7A00E49CFC22C8
:0E0C4D00C3E49FFFE49EFEE49DFDE49CFC22B8
:100C5B00EB9FF5F0EA9E42F0E99D42F0EC6480C810
:060C6B0064809845F022B0
:0C0C7100ECF0A3EDF0A3EEF0A3EFF022F6
:0C0C7D00A42582F582E5F03583F5832282
:101A7D000216E7E493A3F8E493A34003F68001F282
:101A8D0008DFF48029E493A3F85407240CC8C3336A
:101A9D00C4540F4420C8834004F456800146F6DF39
:101AAD00E4800B0102040810204080901E8AE47E21
:101ABD00019360BCA3FF543F30E509541FFEE4932E
:101ACD00A360010ECF54C025E060A840B8E493A3F5
:101ADD00FAE493A3F8E493A3C8C582C8CAC583CA20
:101AED00F0A3C8C582C8CAC583CADFE9DEE780BED8
:011EA500003C
:100C890075F008758200EF2FFFEE33FECD33CDCC22
:100C990033CCC58233C5829BED9AEC99E5829840A5
:100CA9000CF582EE9BFEED9AFDEC99FC0FD5F0D682
:100CB900E4CEFBE4CDFAE4CCF9A88222B800C1B9AC
:100CC9000059BA002DEC8BF084CFCECDFCE5F0CBEA
:100CD900F97818EF2FFFEE33FEED33FDEC33FCEB23
:100CE90033FB10D703994004EB99FB0FD8E5E4F9DE
:100CF900FA227818EF2FFFEE33FEED33FDEC33FCCB
:100D0900C933C910D7059BE99A4007EC9BFCE99ABE
:100D1900F90FD8E0E4C9FAE4CCFB2275F010EF2F03
:100D2900FFEE33FEED33FDCC33CCC833C810D70703
:100D39009BEC9AE899400AED9BFDEC9AFCE899F83E
:0E0D49000FD5F0DAE4CDFBE4CCFAE4C8F922D1
:00000001FF
